{
  "contractName": "DropboxV2",
  "abi": [
    {
      "inputs": [],
      "stateMutability": "nonpayable",
      "type": "constructor"
    },
    {
      "anonymous": false,
      "inputs": [
        {
          "indexed": false,
          "internalType": "uint256",
          "name": "fileId",
          "type": "uint256"
        },
        {
          "indexed": false,
          "internalType": "string",
          "name": "fileHash",
          "type": "string"
        },
        {
          "indexed": false,
          "internalType": "uint256",
          "name": "fileSize",
          "type": "uint256"
        },
        {
          "indexed": false,
          "internalType": "string",
          "name": "fileType",
          "type": "string"
        },
        {
          "indexed": false,
          "internalType": "string",
          "name": "fileName",
          "type": "string"
        },
        {
          "indexed": false,
          "internalType": "string",
          "name": "fileDescription",
          "type": "string"
        },
        {
          "indexed": false,
          "internalType": "uint256",
          "name": "uploadTime",
          "type": "uint256"
        },
        {
          "indexed": false,
          "internalType": "address payable",
          "name": "uploader",
          "type": "address"
        }
      ],
      "name": "FileUploaded",
      "type": "event"
    },
    {
      "inputs": [],
      "name": "fileCount",
      "outputs": [
        {
          "internalType": "uint256",
          "name": "",
          "type": "uint256"
        }
      ],
      "stateMutability": "view",
      "type": "function"
    },
    {
      "inputs": [
        {
          "internalType": "uint256",
          "name": "",
          "type": "uint256"
        }
      ],
      "name": "files",
      "outputs": [
        {
          "internalType": "uint256",
          "name": "fileId",
          "type": "uint256"
        },
        {
          "internalType": "string",
          "name": "fileHash",
          "type": "string"
        },
        {
          "internalType": "uint256",
          "name": "fileSize",
          "type": "uint256"
        },
        {
          "internalType": "string",
          "name": "fileType",
          "type": "string"
        },
        {
          "internalType": "string",
          "name": "fileName",
          "type": "string"
        },
        {
          "internalType": "string",
          "name": "fileDescription",
          "type": "string"
        },
        {
          "internalType": "uint256",
          "name": "uploadTime",
          "type": "uint256"
        },
        {
          "internalType": "address payable",
          "name": "uploader",
          "type": "address"
        }
      ],
      "stateMutability": "view",
      "type": "function"
    },
    {
      "inputs": [],
      "name": "name",
      "outputs": [
        {
          "internalType": "string",
          "name": "",
          "type": "string"
        }
      ],
      "stateMutability": "view",
      "type": "function"
    },
    {
      "inputs": [],
      "name": "getFileCount",
      "outputs": [
        {
          "internalType": "uint256",
          "name": "",
          "type": "uint256"
        }
      ],
      "stateMutability": "view",
      "type": "function"
    },
    {
      "inputs": [],
      "name": "listFiles",
      "outputs": [
        {
          "components": [
            {
              "internalType": "uint256",
              "name": "fileId",
              "type": "uint256"
            },
            {
              "internalType": "string",
              "name": "fileHash",
              "type": "string"
            },
            {
              "internalType": "uint256",
              "name": "fileSize",
              "type": "uint256"
            },
            {
              "internalType": "string",
              "name": "fileType",
              "type": "string"
            },
            {
              "internalType": "string",
              "name": "fileName",
              "type": "string"
            },
            {
              "internalType": "string",
              "name": "fileDescription",
              "type": "string"
            },
            {
              "internalType": "uint256",
              "name": "uploadTime",
              "type": "uint256"
            },
            {
              "internalType": "address payable",
              "name": "uploader",
              "type": "address"
            }
          ],
          "internalType": "struct DropboxV2.File[]",
          "name": "",
          "type": "tuple[]"
        }
      ],
      "stateMutability": "view",
      "type": "function"
    },
    {
      "inputs": [
        {
          "internalType": "string",
          "name": "_fileHash",
          "type": "string"
        },
        {
          "internalType": "uint256",
          "name": "_fileSize",
          "type": "uint256"
        },
        {
          "internalType": "string",
          "name": "_fileType",
          "type": "string"
        },
        {
          "internalType": "string",
          "name": "_fileName",
          "type": "string"
        },
        {
          "internalType": "string",
          "name": "_fileDescription",
          "type": "string"
        },
        {
          "internalType": "uint8",
          "name": "v",
          "type": "uint8"
        },
        {
          "internalType": "bytes32",
          "name": "r",
          "type": "bytes32"
        },
        {
          "internalType": "bytes32",
          "name": "s",
          "type": "bytes32"
        }
      ],
      "name": "uploadFile",
      "outputs": [],
      "stateMutability": "nonpayable",
      "type": "function"
    }
  ],
  "bytecode": "0x60806040526040518060400160405280600981526020017f44726f70626f785632000000000000000000000000000000000000000000000081525060009080519060200190620000519291906200006b565b5060006001553480156200006457600080fd5b5062000180565b82805462000079906200011b565b90600052602060002090601f0160209004810192826200009d5760008555620000e9565b82601f10620000b857805160ff1916838001178555620000e9565b82800160010185558215620000e9579182015b82811115620000e8578251825591602001919060010190620000cb565b5b509050620000f89190620000fc565b5090565b5b8082111562000117576000816000905550600101620000fd565b5090565b600060028204905060018216806200013457607f821691505b602082108114156200014b576200014a62000151565b5b50919050565b7f4e487b7100000000000000000000000000000000000000000000000000000000600052602260045260246000fd5b61163380620001906000396000f3fe608060405234801561001057600080fd5b50600436106100625760003560e01c806306fdde03146100675780634395351914610085578063b033d8fa146100a3578063bab50cc9146100c1578063be46386f146100df578063f4c714b4146100fb575b600080fd5b61006f610132565b60405161007c9190611203565b60405180910390f35b61008d6101c0565b60405161009a9190611245565b60405180910390f35b6100ab6101c6565b6040516100b8919061119c565b60405180910390f35b6100c96105a7565b6040516100d69190611245565b60405180910390f35b6100f960048036038101906100f49190610d42565b6105b1565b005b61011560048036038101906101109190610e54565b610819565b604051610129989796959493929190611260565b60405180910390f35b6000805461013f90611495565b80601f016020809104026020016040519081016040528092919081815260200182805461016b90611495565b80156101b85780601f1061018d576101008083540402835291602001916101b8565b820191906000526020600020905b81548152906001019060200180831161019b57829003601f168201915b505050505081565b60015481565b606060006101d26105a7565b905060008167ffffffffffffffff811115610216577f4e487b7100000000000000000000000000000000000000000000000000000000600052604160045260246000fd5b60405190808252806020026020018201604052801561024f57816020015b61023c610b9d565b8152602001906001900390816102345790505b5090506000600190505b82811161059e5760026000828152602001908152602001600020604051806101000160405290816000820154815260200160018201805461029990611495565b80601f01602080910402602001604051908101604052809291908181526020018280546102c590611495565b80156103125780601f106102e757610100808354040283529160200191610312565b820191906000526020600020905b8154815290600101906020018083116102f557829003601f168201915b505050505081526020016002820154815260200160038201805461033590611495565b80601f016020809104026020016040519081016040528092919081815260200182805461036190611495565b80156103ae5780601f10610383576101008083540402835291602001916103ae565b820191906000526020600020905b81548152906001019060200180831161039157829003601f168201915b505050505081526020016004820180546103c790611495565b80601f01602080910402602001604051908101604052809291908181526020018280546103f390611495565b80156104405780601f1061041557610100808354040283529160200191610440565b820191906000526020600020905b81548152906001019060200180831161042357829003601f168201915b5050505050815260200160058201805461045990611495565b80601f016020809104026020016040519081016040528092919081815260200182805461048590611495565b80156104d25780601f106104a7576101008083540402835291602001916104d2565b820191906000526020600020905b8154815290600101906020018083116104b557829003601f168201915b50505050508152602001600682015481526020016007820160009054906101000a900473ffffffffffffffffffffffffffffffffffffffff1673ffffffffffffffffffffffffffffffffffffffff1673ffffffffffffffffffffffffffffffffffffffff16815250508260018361054991906113cc565b81518110610580577f4e487b7100000000000000000000000000000000000000000000000000000000600052603260045260246000fd5b60200260200101819052508080610596906114c7565b915050610259565b50809250505090565b6000600154905090565b6000886040516020016105c4919061115f565b60405160208183030381529060405280519060200120905060006105ea82868686610aa1565b905060008a51116105fa57600080fd5b600088511161060857600080fd5b600086511161061657600080fd5b600087511161062457600080fd5b600073ffffffffffffffffffffffffffffffffffffffff163373ffffffffffffffffffffffffffffffffffffffff16141561065e57600080fd5b6000891161066b57600080fd5b6001600081548092919061067e906114c7565b919050555060405180610100016040528060015481526020018b81526020018a81526020018981526020018881526020018781526020014281526020018273ffffffffffffffffffffffffffffffffffffffff16815250600260006001548152602001908152602001600020600082015181600001556020820151816001019080519060200190610710929190610bf8565b50604082015181600201556060820151816003019080519060200190610737929190610bf8565b506080820151816004019080519060200190610754929190610bf8565b5060a0820151816005019080519060200190610771929190610bf8565b5060c0820151816006015560e08201518160070160006101000a81548173ffffffffffffffffffffffffffffffffffffffff021916908373ffffffffffffffffffffffffffffffffffffffff1602179055509050507f6e95bbaa37a5fdec42a312e049dea2fe6160ebe659214d3409b4f91f164c2f526001548b8b8b8b8b4288604051610805989796959493929190611260565b60405180910390a150505050505050505050565b600260205280600052604060002060009150905080600001549080600101805461084290611495565b80601f016020809104026020016040519081016040528092919081815260200182805461086e90611495565b80156108bb5780601f10610890576101008083540402835291602001916108bb565b820191906000526020600020905b81548152906001019060200180831161089e57829003601f168201915b5050505050908060020154908060030180546108d690611495565b80601f016020809104026020016040519081016040528092919081815260200182805461090290611495565b801561094f5780601f106109245761010080835404028352916020019161094f565b820191906000526020600020905b81548152906001019060200180831161093257829003601f168201915b50505050509080600401805461096490611495565b80601f016020809104026020016040519081016040528092919081815260200182805461099090611495565b80156109dd5780601f106109b2576101008083540402835291602001916109dd565b820191906000526020600020905b8154815290600101906020018083116109c057829003601f168201915b5050505050908060050180546109f290611495565b80601f0160208091040260200160405190810160405280929190818152602001828054610a1e90611495565b8015610a6b5780601f10610a4057610100808354040283529160200191610a6b565b820191906000526020600020905b815481529060010190602001808311610a4e57829003601f168201915b5050505050908060060154908060070160009054906101000a900473ffffffffffffffffffffffffffffffffffffffff16905088565b60008085604051602001610ab59190611176565b604051602081830303815290604052805190602001209050600060018287878760405160008152602001604052604051610af294939291906111be565b6020604051602081039080840390855afa158015610b14573d6000803e3d6000fd5b505050602060405103519050600073ffffffffffffffffffffffffffffffffffffffff168173ffffffffffffffffffffffffffffffffffffffff161415610b90576040517f08c379a0000000000000000000000000000000000000000000000000000000008152600401610b8790611225565b60405180910390fd5b8092505050949350505050565b60405180610100016040528060008152602001606081526020016000815260200160608152602001606081526020016060815260200160008152602001600073ffffffffffffffffffffffffffffffffffffffff1681525090565b828054610c0490611495565b90600052602060002090601f016020900481019282610c265760008555610c6d565b82601f10610c3f57805160ff1916838001178555610c6d565b82800160010185558215610c6d579182015b82811115610c6c578251825591602001919060010190610c51565b5b509050610c7a9190610c7e565b5090565b5b80821115610c97576000816000905550600101610c7f565b5090565b6000610cae610ca98461132b565b6112fa565b905082815260208101848484011115610cc657600080fd5b610cd1848285611453565b509392505050565b600081359050610ce8816115b8565b92915050565b600082601f830112610cff57600080fd5b8135610d0f848260208601610c9b565b91505092915050565b600081359050610d27816115cf565b92915050565b600081359050610d3c816115e6565b92915050565b600080600080600080600080610100898b031215610d5f57600080fd5b600089013567ffffffffffffffff811115610d7957600080fd5b610d858b828c01610cee565b9850506020610d968b828c01610d18565b975050604089013567ffffffffffffffff811115610db357600080fd5b610dbf8b828c01610cee565b965050606089013567ffffffffffffffff811115610ddc57600080fd5b610de88b828c01610cee565b955050608089013567ffffffffffffffff811115610e0557600080fd5b610e118b828c01610cee565b94505060a0610e228b828c01610d2d565b93505060c0610e338b828c01610cd9565b92505060e0610e448b828c01610cd9565b9150509295985092959890939650565b600060208284031215610e6657600080fd5b6000610e7484828501610d18565b91505092915050565b6000610e89838361106d565b905092915050565b610e9a81611400565b82525050565b610ea981611400565b82525050565b6000610eba8261136b565b610ec4818561138e565b935083602082028501610ed68561135b565b8060005b85811015610f125784840389528151610ef38582610e7d565b9450610efe83611381565b925060208a01995050600181019050610eda565b50829750879550505050505092915050565b610f2d81611412565b82525050565b610f44610f3f82611412565b611510565b82525050565b6000610f5582611376565b610f5f818561139f565b9350610f6f818560208601611462565b610f78816115a7565b840191505092915050565b6000610f8e82611376565b610f9881856113b0565b9350610fa8818560208601611462565b610fb1816115a7565b840191505092915050565b6000610fc782611376565b610fd181856113c1565b9350610fe1818560208601611462565b80840191505092915050565b6000610ffa601c836113c1565b91507f19457468657265756d205369676e6564204d6573736167653a0a3332000000006000830152601c82019050919050565b600061103a6011836113b0565b91507f496e76616c6964207369676e61747572650000000000000000000000000000006000830152602082019050919050565b6000610100830160008301516110866000860182611132565b506020830151848203602086015261109e8282610f4a565b91505060408301516110b36040860182611132565b50606083015184820360608601526110cb8282610f4a565b915050608083015184820360808601526110e58282610f4a565b91505060a083015184820360a08601526110ff8282610f4a565b91505060c083015161111460c0860182611132565b5060e083015161112760e0860182610e91565b508091505092915050565b61113b8161143c565b82525050565b61114a8161143c565b82525050565b61115981611446565b82525050565b600061116b8284610fbc565b915081905092915050565b600061118182610fed565b915061118d8284610f33565b60208201915081905092915050565b600060208201905081810360008301526111b68184610eaf565b905092915050565b60006080820190506111d36000830187610f24565b6111e06020830186611150565b6111ed6040830185610f24565b6111fa6060830184610f24565b95945050505050565b6000602082019050818103600083015261121d8184610f83565b905092915050565b6000602082019050818103600083015261123e8161102d565b9050919050565b600060208201905061125a6000830184611141565b92915050565b600061010082019050611276600083018b611141565b8181036020830152611288818a610f83565b90506112976040830189611141565b81810360608301526112a98188610f83565b905081810360808301526112bd8187610f83565b905081810360a08301526112d18186610f83565b90506112e060c0830185611141565b6112ed60e0830184610ea0565b9998505050505050505050565b6000604051905081810181811067ffffffffffffffff8211171561132157611320611578565b5b8060405250919050565b600067ffffffffffffffff82111561134657611345611578565b5b601f19601f8301169050602081019050919050565b6000819050602082019050919050565b600081519050919050565b600081519050919050565b6000602082019050919050565b600082825260208201905092915050565b600082825260208201905092915050565b600082825260208201905092915050565b600081905092915050565b60006113d78261143c565b91506113e28361143c565b9250828210156113f5576113f461151a565b5b828203905092915050565b600061140b8261141c565b9050919050565b6000819050919050565b600073ffffffffffffffffffffffffffffffffffffffff82169050919050565b6000819050919050565b600060ff82169050919050565b82818337600083830152505050565b60005b83811015611480578082015181840152602081019050611465565b8381111561148f576000848401525b50505050565b600060028204905060018216806114ad57607f821691505b602082108114156114c1576114c0611549565b5b50919050565b60006114d28261143c565b91507fffffffffffffffffffffffffffffffffffffffffffffffffffffffffffffffff8214156115055761150461151a565b5b600182019050919050565b6000819050919050565b7f4e487b7100000000000000000000000000000000000000000000000000000000600052601160045260246000fd5b7f4e487b7100000000000000000000000000000000000000000000000000000000600052602260045260246000fd5b7f4e487b7100000000000000000000000000000000000000000000000000000000600052604160045260246000fd5b6000601f19601f8301169050919050565b6115c181611412565b81146115cc57600080fd5b50565b6115d88161143c565b81146115e357600080fd5b50565b6115ef81611446565b81146115fa57600080fd5b5056fea2646970667358221220917128124c976458d9d97717b6b197b1742e2936dcf68a65752aff6f79912f4664736f6c63430008000033",
  "immutableReferences": {},
  "source": "// SPDX-License-Identifier: MIT\npragma solidity ^0.8.0;\n\ncontract DropboxV2 {\n    string public name = 'DropboxV2';\n    uint public fileCount = 0;\n    mapping (uint => File) public files;\n\n    constructor() {}\n\n    struct File {\n        uint fileId;\n        string fileHash;\n        uint fileSize;\n        string fileType;\n        string fileName;\n        string fileDescription;\n        uint uploadTime;\n        address payable uploader;\n    }\n\n    event FileUploaded(\n        uint fileId,\n        string fileHash,\n        uint fileSize,\n        string fileType,\n        string fileName,\n        string fileDescription,\n        uint uploadTime,\n        address payable uploader\n    );\n\n    function getFileCount() public view returns (uint) {\n        return fileCount;\n    }\n\n    function listFiles() public view returns (File[] memory) {\n        uint count = getFileCount();\n        File[] memory allFiles = new File[](count);\n\n        for (uint i = 1; i <= count; i++) {\n            allFiles[i - 1] = files[i];\n        }\n\n        return allFiles;\n    }\n\n    // function to upload file info, but in this case the uplaoder is obtained from the signature\n     function uploadFile(\n        string memory _fileHash, \n        uint _fileSize, \n        string memory _fileType, \n        string memory _fileName, \n        string memory _fileDescription,\n        uint8 v, \n        bytes32 r, \n        bytes32 s) public {\n\n          // Create the hash of the message with keccak256\n        bytes32 messageHash = keccak256(abi.encodePacked(_fileHash));\n\n        // Verify the signature\n        address uploader = verifySignature(messageHash, v, r, s);\n        // Recover the signer address\n       // address uploader = ecrecover(ethSignedMessageHash, v, r, s);\n        //require(uploader != address(0), \"Invalid signature\");\n\n        // validate incomming data\n        require(bytes(_fileHash).length > 0);\n        require(bytes(_fileType).length > 0);\n        require(bytes(_fileDescription).length > 0);\n        require(bytes(_fileName).length > 0);\n        require(msg.sender!=address(0));\n        require(_fileSize>0);\n\n        fileCount++;\n        files[fileCount] = File(fileCount, \n             _fileHash,\n             _fileSize,\n             _fileType,\n             _fileName,\n             _fileDescription,\n             block.timestamp,\n             payable(uploader)//payable(msg.sender)\n        );\n\n        emit FileUploaded(fileCount, _fileHash, _fileSize, _fileType, _fileName, _fileDescription, block.timestamp, payable(uploader));\n    }\n\n    function verifySignature(bytes32 messageHash, uint8 v, bytes32 r, bytes32 s) internal pure returns (address) {\n        // Prefix the hash according to the Ethereum signed message prefix\n        bytes32 ethSignedMessageHash = keccak256(abi.encodePacked(\"\\x19Ethereum Signed Message:\\n32\", messageHash));\n        \n        // Recover the signer address\n        address signer = ecrecover(ethSignedMessageHash, v, r, s);\n        require(signer != address(0), \"Invalid signature\");\n        return signer;\n    }\n\n\n}",
  "sourcePath": "/Users/israeljosueparrarosales/blockchain/dropbox-clone-v2/contracts/DropboxV2.sol",
  "compiler": {
    "name": "solc",
    "version": "0.8.0+commit.c7dfd78e.Emscripten.clang"
  },
  "schemaVersion": "3.4.16",
  "updatedAt": "2024-06-04T03:28:52.766Z",
  "devdoc": {
    "kind": "dev",
    "methods": {},
    "version": 1
  },
  "userdoc": {
    "kind": "user",
    "methods": {},
    "version": 1
  }
}