{
  "contractName": "SimpleDropbox",
  "abi": [
    {
      "inputs": [],
      "stateMutability": "nonpayable",
      "type": "constructor"
    },
    {
      "anonymous": false,
      "inputs": [
        {
          "indexed": false,
          "internalType": "uint256",
          "name": "fileId",
          "type": "uint256"
        },
        {
          "indexed": false,
          "internalType": "string",
          "name": "fileHash",
          "type": "string"
        },
        {
          "indexed": false,
          "internalType": "uint256",
          "name": "fileSize",
          "type": "uint256"
        },
        {
          "indexed": false,
          "internalType": "string",
          "name": "fileType",
          "type": "string"
        },
        {
          "indexed": false,
          "internalType": "string",
          "name": "fileName",
          "type": "string"
        },
        {
          "indexed": false,
          "internalType": "string",
          "name": "fileDescription",
          "type": "string"
        },
        {
          "indexed": false,
          "internalType": "uint256",
          "name": "uploadTime",
          "type": "uint256"
        },
        {
          "indexed": false,
          "internalType": "address payable",
          "name": "uploader",
          "type": "address"
        }
      ],
      "name": "FileUploaded",
      "type": "event"
    },
    {
      "inputs": [],
      "name": "fileCount",
      "outputs": [
        {
          "internalType": "uint256",
          "name": "",
          "type": "uint256"
        }
      ],
      "stateMutability": "view",
      "type": "function",
      "constant": true
    },
    {
      "inputs": [
        {
          "internalType": "uint256",
          "name": "",
          "type": "uint256"
        }
      ],
      "name": "files",
      "outputs": [
        {
          "internalType": "uint256",
          "name": "fileId",
          "type": "uint256"
        },
        {
          "internalType": "string",
          "name": "fileHash",
          "type": "string"
        },
        {
          "internalType": "uint256",
          "name": "fileSize",
          "type": "uint256"
        },
        {
          "internalType": "string",
          "name": "fileType",
          "type": "string"
        },
        {
          "internalType": "string",
          "name": "fileName",
          "type": "string"
        },
        {
          "internalType": "string",
          "name": "fileDescription",
          "type": "string"
        },
        {
          "internalType": "uint256",
          "name": "uploadTime",
          "type": "uint256"
        },
        {
          "internalType": "address payable",
          "name": "uploader",
          "type": "address"
        }
      ],
      "stateMutability": "view",
      "type": "function",
      "constant": true
    },
    {
      "inputs": [],
      "name": "name",
      "outputs": [
        {
          "internalType": "string",
          "name": "",
          "type": "string"
        }
      ],
      "stateMutability": "view",
      "type": "function",
      "constant": true
    },
    {
      "inputs": [],
      "name": "getFileCount",
      "outputs": [
        {
          "internalType": "uint256",
          "name": "",
          "type": "uint256"
        }
      ],
      "stateMutability": "view",
      "type": "function",
      "constant": true
    },
    {
      "inputs": [
        {
          "internalType": "string",
          "name": "_fileHash",
          "type": "string"
        },
        {
          "internalType": "uint256",
          "name": "_fileSize",
          "type": "uint256"
        },
        {
          "internalType": "string",
          "name": "_fileType",
          "type": "string"
        },
        {
          "internalType": "string",
          "name": "_fileName",
          "type": "string"
        },
        {
          "internalType": "string",
          "name": "_fileDescription",
          "type": "string"
        }
      ],
      "name": "uploadFile",
      "outputs": [],
      "stateMutability": "nonpayable",
      "type": "function"
    },
    {
      "inputs": [],
      "name": "listFiles",
      "outputs": [
        {
          "components": [
            {
              "internalType": "uint256",
              "name": "fileId",
              "type": "uint256"
            },
            {
              "internalType": "string",
              "name": "fileHash",
              "type": "string"
            },
            {
              "internalType": "uint256",
              "name": "fileSize",
              "type": "uint256"
            },
            {
              "internalType": "string",
              "name": "fileType",
              "type": "string"
            },
            {
              "internalType": "string",
              "name": "fileName",
              "type": "string"
            },
            {
              "internalType": "string",
              "name": "fileDescription",
              "type": "string"
            },
            {
              "internalType": "uint256",
              "name": "uploadTime",
              "type": "uint256"
            },
            {
              "internalType": "address payable",
              "name": "uploader",
              "type": "address"
            }
          ],
          "internalType": "struct SimpleDropbox.File[]",
          "name": "",
          "type": "tuple[]"
        }
      ],
      "stateMutability": "view",
      "type": "function",
      "constant": true
    }
  ],
  "bytecode": "0x60806040526040518060400160405280600d81526020017f53696d706c6544726f70626f780000000000000000000000000000000000000081525060009080519060200190620000519291906200006b565b5060006001553480156200006457600080fd5b5062000180565b82805462000079906200011b565b90600052602060002090601f0160209004810192826200009d5760008555620000e9565b82601f10620000b857805160ff1916838001178555620000e9565b82800160010185558215620000e9579182015b82811115620000e8578251825591602001919060010190620000cb565b5b509050620000f89190620000fc565b5090565b5b8082111562000117576000816000905550600101620000fd565b5090565b600060028204905060018216806200013457607f821691505b602082108114156200014b576200014a62000151565b5b50919050565b7f4e487b7100000000000000000000000000000000000000000000000000000000600052602260045260246000fd5b6112b080620001906000396000f3fe608060405234801561001057600080fd5b50600436106100625760003560e01c806306fdde03146100675780634395351914610085578063b033d8fa146100a3578063bab50cc9146100c1578063e82d9d33146100df578063f4c714b4146100fb575b600080fd5b61006f610132565b60405161007c9190610efa565b60405180910390f35b61008d6101c0565b60405161009a9190610f1c565b60405180910390f35b6100ab6101c6565b6040516100b89190610ed8565b60405180910390f35b6100c96105a7565b6040516100d69190610f1c565b60405180910390f35b6100f960048036038101906100f49190610bdc565b6105b1565b005b61011560048036038101906101109190610cb3565b6107d9565b604051610129989796959493929190610f37565b60405180910390f35b6000805461013f9061114a565b80601f016020809104026020016040519081016040528092919081815260200182805461016b9061114a565b80156101b85780601f1061018d576101008083540402835291602001916101b8565b820191906000526020600020905b81548152906001019060200180831161019b57829003601f168201915b505050505081565b60015481565b606060006101d26105a7565b905060008167ffffffffffffffff811115610216577f4e487b7100000000000000000000000000000000000000000000000000000000600052604160045260246000fd5b60405190808252806020026020018201604052801561024f57816020015b61023c610a61565b8152602001906001900390816102345790505b5090506000600190505b82811161059e576002600082815260200190815260200160002060405180610100016040529081600082015481526020016001820180546102999061114a565b80601f01602080910402602001604051908101604052809291908181526020018280546102c59061114a565b80156103125780601f106102e757610100808354040283529160200191610312565b820191906000526020600020905b8154815290600101906020018083116102f557829003601f168201915b50505050508152602001600282015481526020016003820180546103359061114a565b80601f01602080910402602001604051908101604052809291908181526020018280546103619061114a565b80156103ae5780601f10610383576101008083540402835291602001916103ae565b820191906000526020600020905b81548152906001019060200180831161039157829003601f168201915b505050505081526020016004820180546103c79061114a565b80601f01602080910402602001604051908101604052809291908181526020018280546103f39061114a565b80156104405780601f1061041557610100808354040283529160200191610440565b820191906000526020600020905b81548152906001019060200180831161042357829003601f168201915b505050505081526020016005820180546104599061114a565b80601f01602080910402602001604051908101604052809291908181526020018280546104859061114a565b80156104d25780601f106104a7576101008083540402835291602001916104d2565b820191906000526020600020905b8154815290600101906020018083116104b557829003601f168201915b50505050508152602001600682015481526020016007820160009054906101000a900473ffffffffffffffffffffffffffffffffffffffff1673ffffffffffffffffffffffffffffffffffffffff1673ffffffffffffffffffffffffffffffffffffffff1681525050826001836105499190611098565b81518110610580577f4e487b7100000000000000000000000000000000000000000000000000000000600052603260045260246000fd5b602002602001018190525080806105969061117c565b915050610259565b50809250505090565b6000600154905090565b60008551116105bf57600080fd5b60008351116105cd57600080fd5b60008151116105db57600080fd5b60008251116105e957600080fd5b600073ffffffffffffffffffffffffffffffffffffffff163373ffffffffffffffffffffffffffffffffffffffff16141561062357600080fd5b6000841161063057600080fd5b600160008154809291906106439061117c565b919050555060405180610100016040528060015481526020018681526020018581526020018481526020018381526020018281526020014281526020013373ffffffffffffffffffffffffffffffffffffffff168152506002600060015481526020019081526020016000206000820151816000015560208201518160010190805190602001906106d5929190610abc565b506040820151816002015560608201518160030190805190602001906106fc929190610abc565b506080820151816004019080519060200190610719929190610abc565b5060a0820151816005019080519060200190610736929190610abc565b5060c0820151816006015560e08201518160070160006101000a81548173ffffffffffffffffffffffffffffffffffffffff021916908373ffffffffffffffffffffffffffffffffffffffff1602179055509050507f6e95bbaa37a5fdec42a312e049dea2fe6160ebe659214d3409b4f91f164c2f52600154868686868642336040516107ca989796959493929190610f37565b60405180910390a15050505050565b60026020528060005260406000206000915090508060000154908060010180546108029061114a565b80601f016020809104026020016040519081016040528092919081815260200182805461082e9061114a565b801561087b5780601f106108505761010080835404028352916020019161087b565b820191906000526020600020905b81548152906001019060200180831161085e57829003601f168201915b5050505050908060020154908060030180546108969061114a565b80601f01602080910402602001604051908101604052809291908181526020018280546108c29061114a565b801561090f5780601f106108e45761010080835404028352916020019161090f565b820191906000526020600020905b8154815290600101906020018083116108f257829003601f168201915b5050505050908060040180546109249061114a565b80601f01602080910402602001604051908101604052809291908181526020018280546109509061114a565b801561099d5780601f106109725761010080835404028352916020019161099d565b820191906000526020600020905b81548152906001019060200180831161098057829003601f168201915b5050505050908060050180546109b29061114a565b80601f01602080910402602001604051908101604052809291908181526020018280546109de9061114a565b8015610a2b5780601f10610a0057610100808354040283529160200191610a2b565b820191906000526020600020905b815481529060010190602001808311610a0e57829003601f168201915b5050505050908060060154908060070160009054906101000a900473ffffffffffffffffffffffffffffffffffffffff16905088565b60405180610100016040528060008152602001606081526020016000815260200160608152602001606081526020016060815260200160008152602001600073ffffffffffffffffffffffffffffffffffffffff1681525090565b828054610ac89061114a565b90600052602060002090601f016020900481019282610aea5760008555610b31565b82601f10610b0357805160ff1916838001178555610b31565b82800160010185558215610b31579182015b82811115610b30578251825591602001919060010190610b15565b5b509050610b3e9190610b42565b5090565b5b80821115610b5b576000816000905550600101610b43565b5090565b6000610b72610b6d84611002565b610fd1565b905082815260208101848484011115610b8a57600080fd5b610b95848285611108565b509392505050565b600082601f830112610bae57600080fd5b8135610bbe848260208601610b5f565b91505092915050565b600081359050610bd681611263565b92915050565b600080600080600060a08688031215610bf457600080fd5b600086013567ffffffffffffffff811115610c0e57600080fd5b610c1a88828901610b9d565b9550506020610c2b88828901610bc7565b945050604086013567ffffffffffffffff811115610c4857600080fd5b610c5488828901610b9d565b935050606086013567ffffffffffffffff811115610c7157600080fd5b610c7d88828901610b9d565b925050608086013567ffffffffffffffff811115610c9a57600080fd5b610ca688828901610b9d565b9150509295509295909350565b600060208284031215610cc557600080fd5b6000610cd384828501610bc7565b91505092915050565b6000610ce88383610df5565b905092915050565b610cf9816110cc565b82525050565b610d08816110cc565b82525050565b6000610d1982611042565b610d238185611065565b935083602082028501610d3585611032565b8060005b85811015610d715784840389528151610d528582610cdc565b9450610d5d83611058565b925060208a01995050600181019050610d39565b50829750879550505050505092915050565b6000610d8e8261104d565b610d988185611076565b9350610da8818560208601611117565b610db181611252565b840191505092915050565b6000610dc78261104d565b610dd18185611087565b9350610de1818560208601611117565b610dea81611252565b840191505092915050565b600061010083016000830151610e0e6000860182610eba565b5060208301518482036020860152610e268282610d83565b9150506040830151610e3b6040860182610eba565b5060608301518482036060860152610e538282610d83565b91505060808301518482036080860152610e6d8282610d83565b91505060a083015184820360a0860152610e878282610d83565b91505060c0830151610e9c60c0860182610eba565b5060e0830151610eaf60e0860182610cf0565b508091505092915050565b610ec3816110fe565b82525050565b610ed2816110fe565b82525050565b60006020820190508181036000830152610ef28184610d0e565b905092915050565b60006020820190508181036000830152610f148184610dbc565b905092915050565b6000602082019050610f316000830184610ec9565b92915050565b600061010082019050610f4d600083018b610ec9565b8181036020830152610f5f818a610dbc565b9050610f6e6040830189610ec9565b8181036060830152610f808188610dbc565b90508181036080830152610f948187610dbc565b905081810360a0830152610fa88186610dbc565b9050610fb760c0830185610ec9565b610fc460e0830184610cff565b9998505050505050505050565b6000604051905081810181811067ffffffffffffffff82111715610ff857610ff7611223565b5b8060405250919050565b600067ffffffffffffffff82111561101d5761101c611223565b5b601f19601f8301169050602081019050919050565b6000819050602082019050919050565b600081519050919050565b600081519050919050565b6000602082019050919050565b600082825260208201905092915050565b600082825260208201905092915050565b600082825260208201905092915050565b60006110a3826110fe565b91506110ae836110fe565b9250828210156110c1576110c06111c5565b5b828203905092915050565b60006110d7826110de565b9050919050565b600073ffffffffffffffffffffffffffffffffffffffff82169050919050565b6000819050919050565b82818337600083830152505050565b60005b8381101561113557808201518184015260208101905061111a565b83811115611144576000848401525b50505050565b6000600282049050600182168061116257607f821691505b60208210811415611176576111756111f4565b5b50919050565b6000611187826110fe565b91507fffffffffffffffffffffffffffffffffffffffffffffffffffffffffffffffff8214156111ba576111b96111c5565b5b600182019050919050565b7f4e487b7100000000000000000000000000000000000000000000000000000000600052601160045260246000fd5b7f4e487b7100000000000000000000000000000000000000000000000000000000600052602260045260246000fd5b7f4e487b7100000000000000000000000000000000000000000000000000000000600052604160045260246000fd5b6000601f19601f8301169050919050565b61126c816110fe565b811461127757600080fd5b5056fea26469706673582212208eec455d005f74e92e551fedff616a50e8c525e621d77695e6a734c4384f9e5e64736f6c63430008000033",
  "immutableReferences": {},
  "source": "// SPDX-License-Identifier: MIT\npragma solidity ^0.8.0;\n\ncontract SimpleDropbox {\n    string public name = 'SimpleDropbox';\n    uint public fileCount = 0;\n    mapping (uint => File) public files;\n\n    constructor() {}\n\n    struct File {\n        uint fileId;\n        string fileHash;\n        uint fileSize;\n        string fileType;\n        string fileName;\n        string fileDescription;\n        uint uploadTime;\n        address payable uploader;\n    }\n\n    event FileUploaded(\n        uint fileId,\n        string fileHash,\n        uint fileSize,\n        string fileType,\n        string fileName, \n        string fileDescription,\n        uint uploadTime,\n        address payable uploader\n    );\n\n    function getFileCount() public view returns (uint) {\n        return fileCount;\n    }\n\n    function uploadFile(\n        string memory _fileHash, \n        uint _fileSize, \n        string memory _fileType, \n        string memory _fileName, \n        string memory _fileDescription) public {\n\n        // validate incomming data\n        require(bytes(_fileHash).length > 0);\n        require(bytes(_fileType).length > 0);\n        require(bytes(_fileDescription).length > 0);\n        require(bytes(_fileName).length > 0);\n        require(msg.sender!=address(0));\n        require(_fileSize>0);\n\n        fileCount++;\n        files[fileCount] = File(fileCount, \n             _fileHash,\n             _fileSize,\n             _fileType,\n             _fileName,\n             _fileDescription,\n             block.timestamp,\n             payable(msg.sender)\n        );\n\n        emit FileUploaded(fileCount, _fileHash, _fileSize, _fileType, _fileName, _fileDescription, block.timestamp, payable(msg.sender));\n    }\n\n    function listFiles() public view returns (File[] memory) {\n        uint count = getFileCount();\n        File[] memory allFiles = new File[](count);\n\n        for (uint i = 1; i <= count; i++) {\n            allFiles[i - 1] = files[i];\n        }\n\n        return allFiles;\n    }\n    \n}\n",
  "sourcePath": "/Users/israeljosueparrarosales/blockchain/dropbox-clone/contracts/SimpleDropbox.sol",
  "compiler": {
    "name": "solc",
    "version": "0.8.0+commit.c7dfd78e.Emscripten.clang"
  },
  "schemaVersion": "3.4.16",
  "updatedAt": "2024-05-31T20:42:12.396Z",
  "networkType": "ethereum",
  "devdoc": {
    "kind": "dev",
    "methods": {},
    "version": 1
  },
  "userdoc": {
    "kind": "user",
    "methods": {},
    "version": 1
  }
}